{"abi":[{"type":"constructor","inputs":[],"stateMutability":"nonpayable"},{"type":"function","name":"FEE_DENOMINATOR","inputs":[],"outputs":[{"name":"","type":"uint256","internalType":"uint256"}],"stateMutability":"view"},{"type":"function","name":"bets","inputs":[{"name":"","type":"uint256","internalType":"uint256"}],"outputs":[{"name":"id","type":"uint256","internalType":"uint256"},{"name":"marketId","type":"uint256","internalType":"uint256"},{"name":"bettor","type":"address","internalType":"address"},{"name":"side","type":"bool","internalType":"bool"},{"name":"amount","type":"uint256","internalType":"uint256"},{"name":"claimed","type":"bool","internalType":"bool"}],"stateMutability":"view"},{"type":"function","name":"calculateWinnings","inputs":[{"name":"betId","type":"uint256","internalType":"uint256"}],"outputs":[{"name":"","type":"uint256","internalType":"uint256"}],"stateMutability":"view"},{"type":"function","name":"claimWinnings","inputs":[{"name":"betId","type":"uint256","internalType":"uint256"}],"outputs":[],"stateMutability":"nonpayable"},{"type":"function","name":"collectedFees","inputs":[],"outputs":[{"name":"","type":"uint256","internalType":"uint256"}],"stateMutability":"view"},{"type":"function","name":"createMarket","inputs":[{"name":"question","type":"string","internalType":"string"},{"name":"duration","type":"uint256","internalType":"uint256"}],"outputs":[{"name":"","type":"uint256","internalType":"uint256"}],"stateMutability":"nonpayable"},{"type":"function","name":"emergencyWithdraw","inputs":[],"outputs":[],"stateMutability":"nonpayable"},{"type":"function","name":"getBet","inputs":[{"name":"betId","type":"uint256","internalType":"uint256"}],"outputs":[{"name":"","type":"tuple","internalType":"struct PredictionMarket.Bet","components":[{"name":"id","type":"uint256","internalType":"uint256"},{"name":"marketId","type":"uint256","internalType":"uint256"},{"name":"bettor","type":"address","internalType":"address"},{"name":"side","type":"bool","internalType":"bool"},{"name":"amount","type":"uint256","internalType":"uint256"},{"name":"claimed","type":"bool","internalType":"bool"}]}],"stateMutability":"view"},{"type":"function","name":"getMarket","inputs":[{"name":"marketId","type":"uint256","internalType":"uint256"}],"outputs":[{"name":"","type":"tuple","internalType":"struct PredictionMarket.Market","components":[{"name":"id","type":"uint256","internalType":"uint256"},{"name":"question","type":"string","internalType":"string"},{"name":"totalYesStake","type":"uint256","internalType":"uint256"},{"name":"totalNoStake","type":"uint256","internalType":"uint256"},{"name":"endTime","type":"uint256","internalType":"uint256"},{"name":"resolved","type":"bool","internalType":"bool"},{"name":"outcome","type":"bool","internalType":"bool"},{"name":"creator","type":"address","internalType":"address"},{"name":"exists","type":"bool","internalType":"bool"}]}],"stateMutability":"view"},{"type":"function","name":"getMarketBets","inputs":[{"name":"marketId","type":"uint256","internalType":"uint256"}],"outputs":[{"name":"","type":"uint256[]","internalType":"uint256[]"}],"stateMutability":"view"},{"type":"function","name":"getMarketOdds","inputs":[{"name":"marketId","type":"uint256","internalType":"uint256"}],"outputs":[{"name":"yesOdds","type":"uint256","internalType":"uint256"},{"name":"noOdds","type":"uint256","internalType":"uint256"}],"stateMutability":"view"},{"type":"function","name":"getUserBets","inputs":[{"name":"user","type":"address","internalType":"address"}],"outputs":[{"name":"","type":"uint256[]","internalType":"uint256[]"}],"stateMutability":"view"},{"type":"function","name":"marketBets","inputs":[{"name":"","type":"uint256","internalType":"uint256"},{"name":"","type":"uint256","internalType":"uint256"}],"outputs":[{"name":"","type":"uint256","internalType":"uint256"}],"stateMutability":"view"},{"type":"function","name":"markets","inputs":[{"name":"","type":"uint256","internalType":"uint256"}],"outputs":[{"name":"id","type":"uint256","internalType":"uint256"},{"name":"question","type":"string","internalType":"string"},{"name":"totalYesStake","type":"uint256","internalType":"uint256"},{"name":"totalNoStake","type":"uint256","internalType":"uint256"},{"name":"endTime","type":"uint256","internalType":"uint256"},{"name":"resolved","type":"bool","internalType":"bool"},{"name":"outcome","type":"bool","internalType":"bool"},{"name":"creator","type":"address","internalType":"address"},{"name":"exists","type":"bool","internalType":"bool"}],"stateMutability":"view"},{"type":"function","name":"nextBetId","inputs":[],"outputs":[{"name":"","type":"uint256","internalType":"uint256"}],"stateMutability":"view"},{"type":"function","name":"nextMarketId","inputs":[],"outputs":[{"name":"","type":"uint256","internalType":"uint256"}],"stateMutability":"view"},{"type":"function","name":"owner","inputs":[],"outputs":[{"name":"","type":"address","internalType":"address"}],"stateMutability":"view"},{"type":"function","name":"placeBet","inputs":[{"name":"marketId","type":"uint256","internalType":"uint256"},{"name":"side","type":"bool","internalType":"bool"}],"outputs":[],"stateMutability":"payable"},{"type":"function","name":"platformFeePercent","inputs":[],"outputs":[{"name":"","type":"uint256","internalType":"uint256"}],"stateMutability":"view"},{"type":"function","name":"renounceOwnership","inputs":[],"outputs":[],"stateMutability":"nonpayable"},{"type":"function","name":"resolveMarket","inputs":[{"name":"marketId","type":"uint256","internalType":"uint256"},{"name":"outcome","type":"bool","internalType":"bool"}],"outputs":[],"stateMutability":"nonpayable"},{"type":"function","name":"setPlatformFee","inputs":[{"name":"newFeePercent","type":"uint256","internalType":"uint256"}],"outputs":[],"stateMutability":"nonpayable"},{"type":"function","name":"transferOwnership","inputs":[{"name":"newOwner","type":"address","internalType":"address"}],"outputs":[],"stateMutability":"nonpayable"},{"type":"function","name":"userBets","inputs":[{"name":"","type":"address","internalType":"address"},{"name":"","type":"uint256","internalType":"uint256"}],"outputs":[{"name":"","type":"uint256","internalType":"uint256"}],"stateMutability":"view"},{"type":"function","name":"withdrawFees","inputs":[],"outputs":[],"stateMutability":"nonpayable"},{"type":"event","name":"BetPlaced","inputs":[{"name":"betId","type":"uint256","indexed":true,"internalType":"uint256"},{"name":"marketId","type":"uint256","indexed":true,"internalType":"uint256"},{"name":"bettor","type":"address","indexed":true,"internalType":"address"},{"name":"side","type":"bool","indexed":false,"internalType":"bool"},{"name":"amount","type":"uint256","indexed":false,"internalType":"uint256"}],"anonymous":false},{"type":"event","name":"FeesWithdrawn","inputs":[{"name":"owner","type":"address","indexed":true,"internalType":"address"},{"name":"amount","type":"uint256","indexed":false,"internalType":"uint256"}],"anonymous":false},{"type":"event","name":"MarketCreated","inputs":[{"name":"marketId","type":"uint256","indexed":true,"internalType":"uint256"},{"name":"question","type":"string","indexed":false,"internalType":"string"},{"name":"endTime","type":"uint256","indexed":false,"internalType":"uint256"},{"name":"creator","type":"address","indexed":true,"internalType":"address"}],"anonymous":false},{"type":"event","name":"MarketResolved","inputs":[{"name":"marketId","type":"uint256","indexed":true,"internalType":"uint256"},{"name":"outcome","type":"bool","indexed":false,"internalType":"bool"},{"name":"totalYesStake","type":"uint256","indexed":false,"internalType":"uint256"},{"name":"totalNoStake","type":"uint256","indexed":false,"internalType":"uint256"}],"anonymous":false},{"type":"event","name":"OwnershipTransferred","inputs":[{"name":"previousOwner","type":"address","indexed":true,"internalType":"address"},{"name":"newOwner","type":"address","indexed":true,"internalType":"address"}],"anonymous":false},{"type":"event","name":"WinningsClaimed","inputs":[{"name":"betId","type":"uint256","indexed":true,"internalType":"uint256"},{"name":"bettor","type":"address","indexed":true,"internalType":"address"},{"name":"amount","type":"uint256","indexed":false,"internalType":"uint256"}],"anonymous":false},{"type":"error","name":"OwnableInvalidOwner","inputs":[{"name":"owner","type":"address","internalType":"address"}]},{"type":"error","name":"OwnableUnauthorizedAccount","inputs":[{"name":"account","type":"address","internalType":"address"}]},{"type":"error","name":"ReentrancyGuardReentrantCall","inputs":[]}],"bytecode":{"object":"0x60806040526002600455348015610014575f80fd5b5060015f55338061003e57604051631e4fbdf760e01b81525f600482015260240160405180910390fd5b61004781610057565b50600160028190556003556100a8565b600180546001600160a01b038381166001600160a01b0319831681179093556040519116919082907f8be0079c531659141344cd1fd0a4f28419497f9722a3daafe3b4186f6b6457e0905f90a35050565b611bd4806100b55f395ff3fe608060405260043610610161575f3560e01c8063883c84c1116100cd578063a2e279eb11610087578063db2e21bc11610062578063db2e21bc14610561578063eb44fdd314610575578063f2e55021146105a1578063f2fde38b146105c0575f80fd5b8063a2e279eb146104fa578063b1283e7714610519578063d73792a91461054d575f80fd5b8063883c84c1146104625780638c639a85146104815780638da5cb5b146104965780639003adfe146104bd5780639aca2792146104d25780639ed9c74d146104e7575f80fd5b8063406ef2ef1161011e578063406ef2ef146103ba578063476343ee146103dd57806357bde446146103f1578063677bd9ff14610410578063715018a61461042f5780638068aa6814610443575f80fd5b8063061e494f1461016557806312e8e2c31461027b57806322af00fa1461029c57806326e127521461033b5780632d56657d1461036f5780633adadc0a1461039b575b5f80fd5b348015610170575f80fd5b5061021e61017f3660046116a0565b6040805160c0810182525f80825260208201819052918101829052606081018290526080810182905260a0810191909152505f90815260066020908152604091829020825160c0810184528154815260018201549281019290925260028101546001600160a01b0381169383019390935260ff600160a01b9093048316151560608301526003810154608083015260040154909116151560a082015290565b604051610272919081518152602080830151908201526040808301516001600160a01b0316908201526060808301511515908201526080808301519082015260a09182015115159181019190915260c00190565b60405180910390f35b348015610286575f80fd5b5061029a6102953660046116a0565b6105df565b005b3480156102a7575f80fd5b506102fc6102b63660046116a0565b60066020525f908152604090208054600182015460028301546003840154600490940154929391926001600160a01b0382169260ff600160a01b90930483169290911686565b6040805196875260208701959095526001600160a01b0390931693850193909352151560608401526080830191909152151560a082015260c001610272565b348015610346575f80fd5b5061035a6103553660046116a0565b610631565b60408051928352602083019190915201610272565b34801561037a575f80fd5b5061038e6103893660046116d2565b6106b3565b60405161027291906116f2565b3480156103a6575f80fd5b5061038e6103b53660046116a0565b61071c565b3480156103c5575f80fd5b506103cf60025481565b604051908152602001610272565b3480156103e8575f80fd5b5061029a610779565b3480156103fc575f80fd5b5061029a61040b366004611735565b6108a0565b34801561041b575f80fd5b5061029a61042a3660046116a0565b610a1d565b34801561043a575f80fd5b5061029a610c82565b34801561044e575f80fd5b506103cf61045d366004611767565b610c93565b34801561046d575f80fd5b506103cf61047c36600461178f565b610cbe565b34801561048c575f80fd5b506103cf60045481565b3480156104a1575f80fd5b506001546040516001600160a01b039091168152602001610272565b3480156104c8575f80fd5b506103cf60095481565b3480156104dd575f80fd5b506103cf60035481565b61029a6104f5366004611735565b610efa565b348015610505575f80fd5b506103cf6105143660046116a0565b6111cb565b348015610524575f80fd5b506105386105333660046116a0565b6112ca565b60405161027299989796959493929190611843565b348015610558575f80fd5b506103cf606481565b34801561056c575f80fd5b5061029a6113ab565b348015610580575f80fd5b5061059461058f3660046116a0565b611433565b60405161027291906118a2565b3480156105ac575f80fd5b506103cf6105bb36600461193a565b6115a7565b3480156105cb575f80fd5b5061029a6105da3660046116d2565b6115c0565b6105e76115fa565b600a81111561062c5760405162461bcd60e51b815260206004820152600c60248201526b08ccaca40e8dede40d0d2ced60a31b60448201526064015b60405180910390fd5b600455565b5f818152600560205260408120600381015460028201548392918391610657919061196e565b9050805f0361066e57506113889485945092505050565b8082600201546127106106819190611987565b61068b919061199e565b93508082600301546127106106a09190611987565b6106aa919061199e565b92505050915091565b6001600160a01b0381165f9081526007602090815260409182902080548351818402810184019094528084526060939283018282801561071057602002820191905f5260205f20905b8154815260200190600101908083116106fc575b50505050509050919050565b5f8181526008602090815260409182902080548351818402810184019094528084526060939283018282801561071057602002820191905f5260205f20908154815260200190600101908083116106fc5750505050509050919050565b6107816115fa565b610789611627565b600954806107cf5760405162461bcd60e51b81526020600482015260136024820152724e6f206665657320746f20776974686472617760681b6044820152606401610623565b5f60098190556001546040516001600160a01b039091169083908381818185875af1925050503d805f811461081f576040519150601f19603f3d011682016040523d82523d5f602084013e610824565b606091505b50509050806108455760405162461bcd60e51b8152600401610623906119bd565b6001546001600160a01b03166001600160a01b03167fc0819c13be868895eb93e40eaceb96de976442fa1d404e5c55f14bb65a8c489a8360405161088b91815260200190565b60405180910390a2505061089e60015f55565b565b6108a86115fa565b5f82815260056020819052604090912090810154600160b01b900460ff1661090a5760405162461bcd60e51b815260206004820152601560248201527413585c9ad95d08191bd95cc81b9bdd08195e1a5cdd605a1b6044820152606401610623565b600581015460ff16156109595760405162461bcd60e51b815260206004820152601760248201527613585c9ad95d08185b1c9958591e481c995cdbdb1d9959604a1b6044820152606401610623565b80600401544210156109a55760405162461bcd60e51b815260206004820152601560248201527413585c9ad95d081b9bdd0818db1bdcd959081e595d605a1b6044820152606401610623565b6005810180548315156101000261ffff199091161760011790556002810154600382015460405185927ff1265d8d5565e10ef15b60baa6bfc2282850bafc2f18789bfb239e00fc00b72192610a10928792919092151583526020830191909152604082015260600190565b60405180910390a2505050565b610a25611627565b5f81815260066020908152604080832060018101548452600590925290912060028201546001600160a01b03163314610a8f5760405162461bcd60e51b815260206004820152600c60248201526b139bdd081e5bdd5c8818995d60a21b6044820152606401610623565b600581015460ff16610ad95760405162461bcd60e51b815260206004820152601360248201527213585c9ad95d081b9bdd081c995cdbdb1d9959606a1b6044820152606401610623565b600482015460ff1615610b205760405162461bcd60e51b815260206004820152600f60248201526e105b1c9958591e4818db185a5b5959608a1b6044820152606401610623565b60058101546002830154600160a01b900460ff908116151561010090920416151514610b795760405162461bcd60e51b815260206004820152600860248201526710995d081b1bdcdd60c21b6044820152606401610623565b60048201805460ff191660011790555f610b92846111cb565b90505f606460045483610ba59190611987565b610baf919061199e565b90505f610bbc82846119e6565b90508160095f828254610bcf919061196e565b90915550506040515f90339083908381818185875af1925050503d805f8114610c13576040519150601f19603f3d011682016040523d82523d5f602084013e610c18565b606091505b5050905080610c395760405162461bcd60e51b8152600401610623906119bd565b604051828152339088907f5380cf6fe903b40c6d5a9e0dfbca2f3a423f0a21520b4d5947ed5169bdba946d9060200160405180910390a3505050505050610c7f60015f55565b50565b610c8a6115fa565b61089e5f61164f565b6007602052815f5260405f208181548110610cac575f80fd5b905f5260205f20015f91509150505481565b5f808211610d0e5760405162461bcd60e51b815260206004820152601960248201527f4475726174696f6e206d75737420626520706f736974697665000000000000006044820152606401610623565b82610d5b5760405162461bcd60e51b815260206004820152601860248201527f5175657374696f6e2063616e6e6f7420626520656d70747900000000000000006044820152606401610623565b600280545f9182610d6b836119f9565b9091555090505f610d7c844261196e565b905060405180610120016040528083815260200187878080601f0160208091040260200160405190810160405280939291908181526020018383808284375f92018290525093855250505060208083018290526040808401839052606084018690526080840183905260a084018390523360c0850152600160e09094018490528683526005825290912083518155908301519091820190610e1d9082611aab565b506040828101516002830155606083015160038301556080830151600483015560a08301516005909201805460c085015160e08601516101009687015161ffff1990931695151561ff001916959095179015159095029490941762010000600160b81b031916620100006001600160a01b039094169390930260ff60b01b191692909217600160b01b9315159390930292909217905551339083907f57d0d124b72f81ed1da0dc728fc33db342705974792928796f6577b8db5c3d5390610ee9908a908a908790611b67565b60405180910390a350949350505050565b610f02611627565b5f82815260056020819052604090912090810154600160b01b900460ff16610f645760405162461bcd60e51b815260206004820152601560248201527413585c9ad95d08191bd95cc81b9bdd08195e1a5cdd605a1b6044820152606401610623565b600581015460ff1615610fb35760405162461bcd60e51b815260206004820152601760248201527613585c9ad95d08185b1c9958591e481c995cdbdb1d9959604a1b6044820152606401610623565b80600401544210610ff65760405162461bcd60e51b815260206004820152600d60248201526c13585c9ad95d0818db1bdcd959609a1b6044820152606401610623565b5f34116110455760405162461bcd60e51b815260206004820152601b60248201527f42657420616d6f756e74206d75737420626520706f73697469766500000000006044820152606401610623565b600380545f9182611055836119f9565b909155506040805160c081018252828152602080820188815233838501908152881580156060860190815234608087019081525f60a088018181528a82526006909752979097209551865592516001860155905160028501805493516001600160a01b039092166001600160a81b031990941693909317600160a01b911515919091021790915592516003830155516004909101805460ff191691151591909117905590915061111d5734826002015f828254611112919061196e565b909155506111369050565b34826003015f828254611130919061196e565b90915550505b335f8181526007602090815260408083208054600181810183559185528385200186905588845260088352818420805491820181558452919092200183905551859083907ff3ab2bcf39be4f92d45c76141f7f2c58640f9a70be1a380118dadd1191b6d53d906111b490889034909115158252602082015260400190565b60405180910390a450506111c760015f55565b5050565b5f818152600660209081526040808320600181015484526005928390529083209182015490919060ff161580611220575060058101546002830154600160a01b900460ff908116151561010090920416151514155b1561122e57505f9392505050565b60028201545f90600160a01b900460ff1661124d578160030154611253565b81600201545b60028401549091505f90600160a01b900460ff1661127557826002015461127b565b82600301545b9050805f03611291575050506003015492915050565b5f828286600301546112a39190611987565b6112ad919061199e565b90508085600301546112bf919061196e565b979650505050505050565b60056020525f9081526040902080546001820180549192916112eb90611a25565b80601f016020809104026020016040519081016040528092919081815260200182805461131790611a25565b80156113625780601f1061133957610100808354040283529160200191611362565b820191905f5260205f20905b81548152906001019060200180831161134557829003601f168201915b505050506002830154600384015460048501546005909501549394919390925060ff8082169161010081048216916201000082046001600160a01b031691600160b01b90041689565b6113b36115fa565b5f6113c66001546001600160a01b031690565b6001600160a01b0316476040515f6040518083038185875af1925050503d805f811461140d576040519150601f19603f3d011682016040523d82523d5f602084013e611412565b606091505b5050905080610c7f5760405162461bcd60e51b8152600401610623906119bd565b6114896040518061012001604052805f8152602001606081526020015f81526020015f81526020015f81526020015f151581526020015f151581526020015f6001600160a01b031681526020015f151581525090565b60055f8381526020019081526020015f20604051806101200160405290815f82015481526020016001820180546114bf90611a25565b80601f01602080910402602001604051908101604052809291908181526020018280546114eb90611a25565b80156115365780601f1061150d57610100808354040283529160200191611536565b820191905f5260205f20905b81548152906001019060200180831161151957829003601f168201915b505050918352505060028201546020820152600382015460408201526004820154606082015260059091015460ff8082161515608084015261010082048116151560a08401526001600160a01b036201000083041660c0840152600160b01b90910416151560e09091015292915050565b6008602052815f5260405f208181548110610cac575f80fd5b6115c86115fa565b6001600160a01b0381166115f157604051631e4fbdf760e01b81525f6004820152602401610623565b610c7f8161164f565b6001546001600160a01b0316331461089e5760405163118cdaa760e01b8152336004820152602401610623565b60025f540361164957604051633ee5aeb560e01b815260040160405180910390fd5b60025f55565b600180546001600160a01b038381166001600160a01b0319831681179093556040519116919082907f8be0079c531659141344cd1fd0a4f28419497f9722a3daafe3b4186f6b6457e0905f90a35050565b5f602082840312156116b0575f80fd5b5035919050565b80356001600160a01b03811681146116cd575f80fd5b919050565b5f602082840312156116e2575f80fd5b6116eb826116b7565b9392505050565b602080825282518282018190525f9190848201906040850190845b818110156117295783518352928401929184019160010161170d565b50909695505050505050565b5f8060408385031215611746575f80fd5b823591506020830135801515811461175c575f80fd5b809150509250929050565b5f8060408385031215611778575f80fd5b611781836116b7565b946020939093013593505050565b5f805f604084860312156117a1575f80fd5b833567ffffffffffffffff808211156117b8575f80fd5b818601915086601f8301126117cb575f80fd5b8135818111156117d9575f80fd5b8760208285010111156117ea575f80fd5b6020928301989097509590910135949350505050565b5f81518084525f5b8181101561182457602081850181015186830182015201611808565b505f602082860101526020601f19601f83011685010191505092915050565b5f6101208b835280602084015261185c8184018c611800565b604084019a909a5250506060810196909652608086019490945291151560a0850152151560c08401526001600160a01b031660e083015215156101009091015292915050565b60208152815160208201525f60208301516101208060408501526118ca610140850183611800565b91506040850151606085015260608501516080850152608085015160a085015260a08501516118fd60c086018215159052565b5060c085015180151560e08601525060e0850151610100611928818701836001600160a01b03169052565b90950151151593019290925250919050565b5f806040838503121561194b575f80fd5b50508035926020909101359150565b634e487b7160e01b5f52601160045260245ffd5b808201808211156119815761198161195a565b92915050565b80820281158282048414176119815761198161195a565b5f826119b857634e487b7160e01b5f52601260045260245ffd5b500490565b6020808252600f908201526e151c985b9cd9995c8819985a5b1959608a1b604082015260600190565b818103818111156119815761198161195a565b5f60018201611a0a57611a0a61195a565b5060010190565b634e487b7160e01b5f52604160045260245ffd5b600181811c90821680611a3957607f821691505b602082108103611a5757634e487b7160e01b5f52602260045260245ffd5b50919050565b601f821115611aa6575f81815260208120601f850160051c81016020861015611a835750805b601f850160051c820191505b81811015611aa257828155600101611a8f565b5050505b505050565b815167ffffffffffffffff811115611ac557611ac5611a11565b611ad981611ad38454611a25565b84611a5d565b602080601f831160018114611b0c575f8415611af55750858301515b5f19600386901b1c1916600185901b178555611aa2565b5f85815260208120601f198616915b82811015611b3a57888601518255948401946001909101908401611b1b565b5085821015611b5757878501515f19600388901b60f8161c191681555b5050505050600190811b01905550565b60408152826040820152828460608301375f606084830101525f6060601f19601f860116830101905082602083015294935050505056fea2646970667358221220be77ae97e666ff6edf605dfa9be45443a1fb8c0838394608ce92177a37bc5eca64736f6c63430008140033","linkReferences":{}},"methodIdentifiers":{"FEE_DENOMINATOR()":"d73792a9","bets(uint256)":"22af00fa","calculateWinnings(uint256)":"a2e279eb","claimWinnings(uint256)":"677bd9ff","collectedFees()":"9003adfe","createMarket(string,uint256)":"883c84c1","emergencyWithdraw()":"db2e21bc","getBet(uint256)":"061e494f","getMarket(uint256)":"eb44fdd3","getMarketBets(uint256)":"3adadc0a","getMarketOdds(uint256)":"26e12752","getUserBets(address)":"2d56657d","marketBets(uint256,uint256)":"f2e55021","markets(uint256)":"b1283e77","nextBetId()":"9aca2792","nextMarketId()":"406ef2ef","owner()":"8da5cb5b","placeBet(uint256,bool)":"9ed9c74d","platformFeePercent()":"8c639a85","renounceOwnership()":"715018a6","resolveMarket(uint256,bool)":"57bde446","setPlatformFee(uint256)":"12e8e2c3","transferOwnership(address)":"f2fde38b","userBets(address,uint256)":"8068aa68","withdrawFees()":"476343ee"},"id":22}